:10000000EAC0000004C1000002C1000000C10000FD
:10001000FEC00000FCC00000FAC00000F8C00000F4
:10002000F6C00000F4C00000F2C000000C947B0990
:10003000EEC00000ECC00000EAC00000E8C0000014
:10004000E6C00000E4C00000E2C00000E0C0000024
:10005000DEC00000DCC00000DAC00000D8C0000034
:10006000D6C00000D4C00000D2C00000D0C0000044
:10007000CEC0000005010904A10185010901A1000C
:1000800009300931169CFF26640036FFFF46010047
:10009000950275088102C005091901290815002576
:1000A00001750195088102750095018101C0050166
:1000B0000904A10185020901A10009300931169C3A
:1000C000FF26640036FFFF46010095027508810295
:1000D000C005091901290815002501750195088138
:1000E00002750095018101C005010904A101850384
:1000F0000901A10009300931169CFF26640036FF72
:10010000FF460100950275088102C0050919012901
:10011000041500250175019504810275049501817E
:1001200001C005010904A10185040901A1000930EC
:100130000931169CFF26640036FFFF460100950238
:1001400075088102C00509190129041500250175EA
:100150000195048102750495018101C0120110010D
:1001600000000008EB034420010001020001090225
:100170002200010100C03209040000010300000058
:1001800009211101000122E800070581030800058B
:1001900004030904100343006C007500730074002D
:1001A0006500720000002E035300650067006100C7
:1001B0002F00440065006E00640079002000630099
:1001C0006F006E00740072006F006C006C006500C0
:1001D00072007300000011241FBECFEFD2E0DEBF1B
:1001E000CDBF11E0A0E0B1E0E8EFFBE102C0059077
:1001F0000D92A031B107D9F711E0A0E1B1E001C043
:100200001D92A533B107E1F776D00C94FA0DF8CE24
:1002100008952E98089580910E0190910F010097F6
:1002200029F0019790930F0180930E0108950F9389
:100230001F93D9018091100190E001968370907016
:1002400080931001E0911001F0E0EE0FFF1FEC5ED3
:10025000FE4F808191818C93E0911001F0E0EE0FD0
:10026000FF1FE05EFE4F8081918111968C93119764
:1002700080911001ECE1F1E0E80FF11D9081129600
:100280008C911297892B12968C93809110018F5F1D
:10029000FB01808383E090E0F8019183808381E01B
:1002A0001F910F910895089580E091E00C94930CB4
:1002B00080E091E00E94720CE2EEF0E080818460C8
:1002C00080832E9A089584B7877F84BF88E10FB614
:1002D000F89480936000109260000FBE80E090E080
:1002E00020E80FB6F89420936100809361000FBE60
:1002F000F3D754D1EFC08F929F92AF92BF92CF921B
:10030000DF92EF92FF920F931F93CF93DF9384B10D
:10031000806C84B92E982F98D6DF7894B4E68B2E13
:10032000912CACE9AA2EAFEFBA2EF5E0CF2E1CD35C
:100330007B018C0129D1E0921C01C801AA27BB27AF
:1003400080931D01862F8F7080931E01872F8F70E1
:1003500080931F01BB27A12F902F8F2D4FE0D42E0C
:10036000D822812F9927AA27BB27582F5F70CB014E
:1003700024E0969587952A95E1F78F70472F42954F
:100380004F7020E030E02130310569F02130310537
:1003900040F02230310549F02330310541F090E042
:1003A00007C09D2D05C0952F03C0982F01C0942F25
:1003B00090FF08C0F901EE0FFF1FE05EFE4FB18213
:1003C000A0820EC0F901EE0FFF1F91FF05C0E05E95
:1003D000FE4F9182808204C0E05EFE4F1182108247
:1003E00092FF08C0F901EE0FFF1FEC5EFE4FB182D5
:1003F000A0820EC0F901EE0FFF1F93FF05C0EC5E57
:10040000FE4F9182808204C0EC5EFE4F118210820A
:100410002F5F3F4F2430310509F0B5CFE114F104CF
:100420000105110511F4672B11F02F9A01C02F98C7
:10043000C0E0D0E08C2D8A95F1F780E091E00E9439
:10044000A30B0E948E0B219683E0C83ED80709F4C7
:100450006ECFF0CFDA019330B1F0943028F49130C0
:1004600041F0923079F50AC0913211F1923251F592
:1004700024C0ECE5F1E022E130E028C0EEE6F1E056
:1004800022E230E023C0813049F0813018F0823020
:10049000C9F40AC0E0E9F1E0849103C0E4E9F1E0C5
:1004A0008491282F30E012C0E6EAF1E08491F9CF80
:1004B000E0E8F1E029E030E009C0E4E7F0E028EE10
:1004C00030E004C0E0E0F0E020E030E0ED93FC93A9
:1004D000C90108953C9A3D9A3E98469A3F98479A9A
:1004E0000895EF92FF920F931F93449A85E3982FFC
:1004F0009A95F1F744988A95F1F7EE24FF24870145
:1005000060E070E0E5E345988E2F8A95F1F726B11B
:1005100086B1229526952695237030E021703070A3
:10052000062E02C0220F331F0A94E2F7442737FD3C
:100530004095542F881F8827881F90E0062E02C000
:10054000880F991F0A94E2F7AA2797FDA095BA2F62
:10055000BA2FA92F982F8827282B392B4A2B5B2BB2
:10056000E22AF32A042B152B459A8E2F8A95F1F750
:100570006F5F7F4F6830710531F6B701C8011F9179
:100580000F91FF90EF900895ACDF9B01AC01209597
:10059000309540955095B901CA010895569A5098E2
:1005A00051985298539854985598589A599A5A9ADB
:1005B0005B9A5C9A5D9A20982198229823982498B7
:1005C0002598289A299A2A9A2B9A2C9A2D9A089536
:1005D0002F923F924F925F926F927F928F929F9253
:1005E000AF92BF92CF92DF92EF92FF920F931F9341
:1005F000DF93CF93CDB7DEB727970FB6F894DEBF62
:100600000FBECDBF5E9888EC90E0FC013197F1F70A
:10061000F9B009B149B029B029B12F8369B16E830E
:1006200013B1A3B1C3B0A3B083B063B05E9A019716
:10063000F1F789B18D83E9B0E9B1EC83F9B1FB83BE
:1006400029B12A8369B1698353B183B123B143B11D
:1006500063B1E3B1869590E081709070880F991F27
:100660002695269530E021703070220F331F220F1F
:10067000331F822B5170852B46954695469550E049
:1006800041705070B3E0440F551FBA95E1F7842BC9
:1006900062956F7070E061707070F4E0660F771FA4
:1006A000FA95E1F7862BE295E695E770F0E0E170C8
:1006B000F07075E0EE0FFF1F7A95E1F78E2B282F73
:1006C00030E040E050E0522F442733272227A69500
:1006D000B0E0A170B070AA0FBB1FC694C694DD2411
:1006E00081E0C822DD24CC0CDD1CCC0CDD1CAC2947
:1006F0001170A12BA694A694A694BB24E1E0AE228F
:10070000BB2413E0AA0CBB1C1A95E1F7AA2982941A
:10071000BFE08B229924F1E08F229924F4E0880C29
:10072000991CFA95E1F7A82962946694E7E06E2295
:10073000772461E06622772475E0660C771C7A9551
:10074000E1F7A6298A2F90E0A0E0B0E0DC0199272C
:100750008827282B392B4A2B5B2B069510E001703C
:100760001070000F111F46944694552481E04822D2
:100770005524440C551C440C551C0429E1E0FE2270
:100780000F292694269426943324F1E02F22332433
:1007900013E0220C331C1A95E1F702296F81629550
:1007A0006F70862F90E081709070B4E0880F991F71
:1007B000BA95E1F7082B8E818295869587708E8396
:1007C00090E081709070A5E0880F991FAA95E1F7DD
:1007D000082B802F90E0A0E0B0E0282B392B4A2B8B
:1007E0005B2BE694FF24E1E0EE22FF24EE0CFF1CDD
:1007F000FC81F695F6958F2F90E081709070880FB0
:10080000991F880F991FE82A6D816170E62A8B81F4
:100810008695869586958B8390E08170907073E0C5
:10082000880F991F7A95E1F7E82AEA81E295EF703F
:100830008E2F90E08170907064E0880F991F6A9508
:10084000E1F7E82AF981F295F695F7708F2F90E09D
:100850008170907005E0880F991F0A95E1F7E82AEA
:100860008E2D90E0A0E0B0E0BA2FA92F982F882716
:10087000282B392B4A2B5B2BB901CA0127960FB6BF
:10088000F894DEBF0FBECDBFCF91DF911F910F91C6
:10089000FF90EF90DF90CF90BF90AF909F908F90A0
:1008A0007F906F905F904F903F902F900895882396
:1008B00049F45198529A539A549A599A5A9A5B9A6F
:1008C0005C9A08952198229A239A249A299A2A9A1E
:1008D0002B9A2C9A0895882319F55A9885E38A95BE
:1008E000F1F740E020E030E055E35B98852F8A95F2
:1008F000F1F789B1869590E081709070022E02C068
:10090000880F991F0A94E2F7482B5B9A852F8A95E6
:10091000F1F72F5F3F4F2830310539F75A9A22C03F
:100920002A9885E38A95F1F740E020E030E055E32E
:100930002B98852F8A95F1F783B1869590E0817089
:100940009070022E02C0880F991F0A94E2F7482B7C
:100950002B9A852F8A95F1F72F5F3F4F283031056D
:1009600039F72A9A842F08952F923F924F925F92DF
:100970006F927F928F929F92AF92BF92CF92DF92AF
:10098000EF92FF920F931F93DF93CF93CDB7DEB714
:10099000E7970FB6F894DEBF0FBECDBF19821A825B
:1009A000EE24FF2487011D86CE0101969FAB8EABFE
:1009B000B1E0AB2EB12CC12CD12C0ADE3B014C0195
:1009C000DE011196BC83AB8320E030E066E070E08E
:1009D000D401C3018F709070A070B0700097A10512
:1009E000B10509F47FC0285F3F4FD601C501022E33
:1009F00004C0880F991FAA1FBB1F0A94D2F78AABA5
:100A00009BABACABBDAB2F5F3F4FD601C501022EF8
:100A100004C0880F991FAA1FBB1F0A94D2F78EA784
:100A20009FA7A8ABB9AB29503040D601C501022E13
:100A300004C0880F991FAA1FBB1F0A94D2F7898789
:100A40009A87AB87BC87D601C501062E04C0880FE4
:100A5000991FAA1FBB1F0A94D2F78D839E83AF8371
:100A6000B887265F3F4FD601C501022E04C0880F0C
:100A7000991FAA1FBB1F0A94D2F78AA39BA3ACA3FA
:100A8000BDA32F5F3F4FD601C501022E04C0880FC2
:100A9000991FAA1FBB1F0A94D2F78E8F9F8FA8A3FE
:100AA000B9A32A503040D601C501022E04C0880FD8
:100AB000991FAA1FBB1F0A94D2F78A8F9B8FAC8FF6
:100AC000BD8F2F5F3F4F15012601022E04C0220C5F
:100AD000331C441C551C0A94D2F722503040E0E0ED
:100AE000F0E005C09D85923008F05DC07CCFD40158
:100AF000C3010E2E04C0B695A795979587950A94C5
:100B0000D2F781709070892B09F047C0E43041F131
:100B1000E53028F4E130B1F0E230E8F40EC0EB301B
:100B200071F1EC3028F4E53001F1EA30B1F522C082
:100B3000EC3051F1ED3089F52CC08AA99BA9ACA904
:100B4000BDA904C08EA59FA5A8A9B9A9E82AF92A1C
:100B50000A2B1B2B22C081E0AB81BC818C931DC072
:100B600089859A85AB85BC85F1CF8D819E81AF81CA
:100B7000B885ECCF8AA19BA1ACA1BDA1E7CF8E8D9A
:100B80009F8DA8A1B9A1E2CF8A8D9B8DAC8DBD8D23
:100B9000DDCFE228F328042915293196EE30F1053E
:100BA00009F0A5CFA0C0D601C501022E04C0880F50
:100BB000991FAA1FBB1F0A94D2F78AA79BA7ACA7AD
:100BC000BDA7D601C501062E04C0880F991FAA1F14
:100BD000BB1F0A94D2F78EA39FA3A8A7B9A72B5F28
:100BE0003F4FD601C501022E04C0880F991FAA1FCE
:100BF000BB1F0A94D2F78E8B9F8BA88FB98F215081
:100C00003040D601C501022E04C0880F991FAA1FCB
:100C1000BB1F0A94D2F78A8B9B8BAC8BBD8B215068
:100C20003040D601C501022E04C0880F991FAA1FAB
:100C3000BB1F0A94D2F78E879F87A88BB98B2C5F36
:100C40003F4F15012601022E04C0220C331C441C08
:100C5000551C0A94D2F727503040E4E0F0E0D4016C
:100C6000C3010E2E04C0B695A795979587950A9453
:100C7000D2F781709070892B89F5E830E1F0E93086
:100C800028F4E43051F0E53049F50CC0EA30E9F0E1
:100C9000EA30B0F0EB3011F51DC08AA59BA5ACA5DC
:100CA000BDA504C08EA19FA1A8A5B9A5E82AF92ACF
:100CB0000A2B1B2B13C08E899F89A88DB98DF6CF67
:100CC0008A899B89AC89BD89F1CF8E859F85A8894A
:100CD000B989ECCFE228F328042915293196EC30A4
:100CE000F10509F0BCCF205F3F4F605F7F4FAB81C4
:100CF000BC811196BC83AB832032310521F03401D5
:100D00008824992465CEBD85BF5FBD87B43009F0C6
:100D100054CE8981882321F08A81882309F067C015
:100D20006E010894C11CD11CAA24BB24FFEF4F2ED6
:100D3000FFEF5F2E612C712CE3E02E2E312C2C0E58
:100D40003D1E9C2CEEA99E1AD6018C91882309F099
:100D500042C0892DACDD88EC90E00197F1F7892D38
:100D6000BADD90E080959095AA2797FDA095BA2FBF
:100D7000A30192010A2C04C0220F331F441F551FE8
:100D80000A94D2F72095309540955095E222F322AF
:100D9000042315239C01AD01207F307040705070FA
:100DA00074E0220F331F441F551F7A95D1F78F70BF
:100DB0009070A070B070282B392B4A2B5B2B0A2C1B
:100DC00004C0220F331F441F551F0A94D2F7E22A92
:100DD000F32A042B152B0894C11CD11CE0E1F0E090
:100DE000AE0EBF1EC214D30409F0ABCFD7DBB701E0
:100DF000C801E7960FB6F894DEBF0FBECDBFCF9106
:100E0000DF911F910F91FF90EF90DF90CF90BF90F7
:100E1000AF909F908F907F906F905F904F903F909A
:100E20002F9008959C014091330150913401461751
:100E3000570718F4F90190E03DC06115710511F0F4
:100E4000AB01F8CF8091E8008E778093E80040E016
:100E500050E0F0CF80912C01882309F441C0853007
:100E600009F440C08091E80083FD3EC08091E80015
:100E700082FD30C08091E80080FF1CC08091F200AC
:100E8000282F30E007C081918093F10041505040FD
:100E90002F5F3F4F4115510519F02830310598F368
:100EA00090E02830310509F491E08091E8008E77D8
:100EB0008093E8004115510569F6992359F60AC057
:100EC00080912C01882361F0853061F08091E800E9
:100ED00083FD0AC08091E80082FFF2CF80E0089590
:100EE00082E0089583E0089581E008959C016115F2
:100EF000710529F48091E8008B778093E800F9016F
:100F000020C080912C01882361F1853061F18091AE
:100F1000E80083FF02C081E008958091E80082FF2D
:100F2000F0CF06C08091F10081936150704021F0B4
:100F30008091F2008823B1F78091E8008B7780934D
:100F4000E80061157105E9F606C080912C0188233F
:100F500041F0853041F08091E80080FFF6CF80E0DD
:100F6000089582E0089583E008959C014091330143
:100F7000509134014617570718F4F90190E03EC02C
:100F80006115710511F0AB01F8CF8091E8008E7703
:100F90008093E80040E050E0F0CF80912C0188235E
:100FA00009F442C0853009F441C08091E80083FD16
:100FB0003FC08091E80082FD31C08091E80080FF51
:100FC0001DC08091F200282F30E008C084918093EA
:100FD000F1003196415050402F5F3F4F4115510570
:100FE00019F02830310590F390E02830310509F4EC
:100FF00091E08091E8008E778093E80041155105DB
:1010000061F6992351F60AC080912C01882361F082
:10101000853061F08091E80083FD0AC08091E8008E
:1010200082FFF2CF80E0089582E0089583E0089582
:1010300081E00895BF92CF92DF92EF92FF920F93DB
:101040001F93CF93DF93182F092F7B016A01D9D00B
:10105000B82E8823B1F5812F902F9C01E901C1148E
:10106000D10439F0F60180819181E81AF90AC80F9C
:10107000D91F00E010E022C08091E80085FD16C075
:101080008091E8008E778093E80048D3C114D104A2
:1010900049F0F60180819181800F911F91838083B7
:1010A00085E010C0AED0882349F00CC089918093B0
:1010B000F1000894E108F1080F5F1F4FE114F104FB
:1010C000D9F68B2DDF91CF911F910F91FF90EF906B
:1010D000DF90CF90BF900895382F282F2EC0822FF9
:1010E0008F708093E900231721F4762F942F50E01E
:1010F00006C07091EC009091ED005091F00091FFCE
:101100001BC08091EB008E7F8093EB008091ED00FF
:101110008D7F8093ED008091EB0081608093EB00E8
:101120007093EC009093ED005093F0008091EE00EE
:1011300087FD02C080E008952F5F253080F23F7068
:101140003093E90081E008950F931F93CF93DF93CD
:10115000062FEC0110E02AC09881992329F16B81B8
:10116000E981FA812C81892F8F70853018F5223022
:1011700010F452E001C056E040E028E030E003C047
:101180004F5F220F331F2E173F07D0F36295660F74
:10119000660F607C991F9927991F692B4295407FA4
:1011A000452B9ADF882331F01F5F25961017A0F298
:1011B00081E001C080E0DF91CF911F910F910895F0
:1011C00080912D0188239CF404C080912C018823F8
:1011D000B9F08091E80082FFF8CF8091E8008B772A
:1011E0008093E800089580912C01882349F0809134
:1011F000E80080FFF8CF8091E8008E778093E800C8
:1012000008954091E4005091E50024E68091EC00BF
:1012100080FF24C08091E80080FD1EC080912C01D9
:10122000882311F482E00895853011F483E0089555
:101230008091EB0085FF02C081E008958091E40079
:101240009091E5008417950709F3222311F484E0B7
:1012500008952150AC01DACF80E008958091E80034
:1012600082FFDCCFF9CF41D043D08091D8008F7777
:101270008093D8008091D80080688093D8008091B6
:10128000D8008F7D8093D80084E089BD86E089BD39
:1012900009B400FEFDCF10922C011092280110928B
:1012A0002A011092290180E060E042E015DF809180
:1012B000E1008E7F8093E1008091E2008160809365
:1012C000E2008091E20088608093E2008091E0007B
:1012D0008E7F8093E0000895E3E6F0E080818E7FCA
:1012E000808381E080932B01BECF1092E2000895AD
:1012F0001092E10008951F920F920FB60F921124E1
:101300002F933F934F935F936F937F938F939F930D
:10131000AF93BF93EF93FF938091E10082FF0BC0E7
:101320008091E20082FF07C08091E1008B7F809373
:10133000E1000E940B018091E10080FF18C08091C4
:10134000E20080FF14C08091E2008E7F8093E20073
:101350008091E20080618093E2008091D8008062F9
:101360008093D80019BC10922C010E940901809131
:10137000E10084FF30C08091E20084FF2CC084E053
:1013800089BD86E089BD09B400FEFDCF8091D800FB
:101390008F7D8093D8008091E1008F7E8093E10063
:1013A0008091E2008F7E8093E2008091E200816074
:1013B0008093E20080912801882311F084E007C027
:1013C0008091E30087FD02C081E001C083E080934B
:1013D0002C010E9408018091E10083FF22C08091CE
:1013E000E20083FF1EC08091E100877F8093E100CF
:1013F00082E080932C01109228018091E1008E7F81
:101400008093E1008091E2008E7F8093E2008091E2
:10141000E20080618093E20080E060E042E05CDE18
:101420007CD1FF91EF91BF91AF919F918F917F916F
:101430006F915F914F913F912F910F900FBE0F9041
:101440001F9018951F93DF93CF93CDB7DEB7AC975E
:101450000FB6F894DEBF0FBECDBFEDE2F1E0809194
:10146000F100819321E0E533F207C9F70E945401AE
:101470008091E80083FF39C180912D0130912E01C8
:10148000353009F487C0363040F43130C9F131309D
:1014900070F0333009F029C133C0383009F4F6C098
:1014A000393009F405C1363009F01FC196C08038C3
:1014B00021F0823809F019C108C09091290180916A
:1014C0002A01882399F0926011C0809131018F70B8
:1014D0008093E9008091EB0090E025E09695879558
:1014E0002A95E1F7982F91701092E9008091E80019
:1014F000877F8093E8009093F1001092F100D1C0B3
:10150000882319F0823009F0F0C090E08F7190705C
:10151000009721F0029709F0E8C00CC080912F01DC
:10152000813009F0E2C010922A01333069F58093CE
:101530002A012AC080912F01882331F520913101A1
:101540002F7009F4D2C02093E9008091EB0080FF56
:101550001BC0333021F48091EB00806213C0809176
:10156000EB0080618093EB0081E090E002C0880F87
:10157000991F2A95E2F78093EA001092EA00809181
:10158000EB0088608093EB001092E9008091E80006
:10159000877F8AC0882309F0A8C010912F011F7788
:1015A0008091E3008078812B8093E3008091E800B4
:1015B000877F8093E80004DE8091E80080FFFCCF05
:1015C0008091E30080688093E300112311F482E0AE
:1015D00001C083E080932C0188C08058823008F0DD
:1015E00084C080912F019091300123E08C3D9207BF
:1015F00009F033C083E08C838AE28B837FB7F89451
:10160000DE0115966EE040E050E011E2E62FF0E0DA
:1016100010935700849140FF03C082958F706F5FD5
:101620008F70282F30E08A3018F0C901C79602C0A9
:10163000C901C0968D939D934F5F5F4F4431510513
:1016400029F77FBF8091E800877F8093E800CE0173
:1016500003966AE270E0E6DB13C060913101AE01EF
:101660004F5F5F4F0E942A02BC01009709F43DC002
:101670008091E800877F8093E80089819A8175DCFA
:101680008091E8008B778093E8002FC0803869F55F
:101690008091E800877F8093E80080912801809303
:1016A000F1008091E8008E778093E80089DD1DC00D
:1016B0008823D9F490912F019230B8F48091E800FA
:1016C000877F8093E800909328017ADD809128013C
:1016D000882331F48091E30087FD02C081E001C0DE
:1016E00084E080932C010E9458018091E80083FFE0
:1016F0000AC08091E800877F8093E8008091EB002A
:1017000080628093EB00AC960FB6F894DEBF0FBEFC
:10171000CDBFCF91DF911F91089508951F938091C0
:101720002C01882371F01091E9008091EC00109257
:10173000E9008091E80083FF01C084DE1F701093F0
:10174000E9001F9108954F925F926F927F928F925E
:101750009F92AF92BF92CF92DF92EF92FF920F9340
:101760001F93DF93CF9300D00F92CDB7DEB77C01EC
:101770006DB67EB680912C01843009F09AC020911C
:10178000E4003091E500F701828593858217930785
:1017900009F48FC081818F708093E9008091E80007
:1017A00085FF87C05DB64EB6408550E08DB79EB7C9
:1017B000841B950B0FB6F8949EBF0FBE8DBF0DB75F
:1017C0001EB70F5F1F4F19821B821A82C02E912EE7
:1017D000C80160E070E050E006D2C701BE016F5F53
:1017E0007F4F40E098018E010E5F1F4F0E9417014E
:1017F000882EF70184859585892B19F4AA24BB24AA
:101800000BC020E0F70186859785892B09F021E040
:1018100081E02827A22EBB24F7010681178101153C
:10182000110511F4DD2412C04A815B818C2D992DA4
:10183000B801C3D1DD24009711F0DD24D394F70162
:101840004085C8016C2D792D50E0C4D18A819B81DF
:10185000892B01F1882021F4DD2011F4AB28D1F08F
:10186000F701848595859787868781818F7080931E
:10187000E9008981882311F08093F1006A817B81DE
:101880008C2D992D40E050E0D5DB8091E8008E77DB
:101890008093E8008091E4009091E500F701938740
:1018A0008287252D342DC9010FB6F8949EBF0FBE37
:1018B0008DBF0FB6F8947EBE0FBE6DBE0F900F9019
:1018C0000F90CF91DF911F910F91FF90EF90DF90DC
:1018D000CF90BF90AF909F908F907F906F905F90D0
:1018E0004F900895CF93DF93DC010996FC0187E0C8
:1018F000EF0119928A95E9F781E019968C9319976F
:1019000084EF91E01D969C938E931C9783E0149630
:101910008C931497CD01019661E016DC811181E072
:10192000DF91CF9108956F927F928F929F92AF92A5
:10193000BF92CF92DF92EF92FF920F931F93DF93AC
:10194000CF9300D00F92CDB7DEB76C016DB67EB6E7
:101950008091E80083FF1AC1F601808190E0209118
:101960003101309132012817390709F00FC18091F8
:101970002E01833009F4B2C0843030F4813071F02C
:10198000823009F003C1E6C08A3009F4CBC08B3045
:1019900009F4B5C0893009F0F9C05CC080912D010F
:1019A000813A09F0F3C09DB68EB61B821A828091EF
:1019B0002F01109130018983F601408550E08DB7E9
:1019C0009EB7841B950B0FB6F8949EBF0FBE8DBFBC
:1019D000EDB6FEB60894E11CF11CBE2CAF2CC7017D
:1019E00060E070E050E0FFD01150C601BE016F5FB3
:1019F0007F4F412F97018E010E5F1F4F0E941701ED
:101A0000F601268137812115310529F04085C9016C
:101A1000B70150E0DFD01092E9008091E800877FA5
:101A20008093E8008981882311F08093F1006A8116
:101A30007B818B2D9A2DF6D98091E8008B7780934E
:101A4000E800292D382DC9010FB6F8949EBF0FBEAE
:101A50008DBF9CC080912D01813209F097C09DB649
:101A60008EB60091330110913401A0902F01B090F7
:101A700030018DB79EB7801B910B0FB6F8949EBFB7
:101A80000FBE8DBFEDB6FEB60894E11CF11C80912F
:101A9000E800877F8093E800C701B80127DA8091CA
:101AA000E8008E778093E80080E090E0AA2011F0B3
:101AB00081E090E0BA94E80EF91E081B190BC601EC
:101AC0006A2D4B2D97010E945301892D982D9C0161
:101AD0000FB6F8943EBF0FBE2DBF58C080912D01A8
:101AE000813A09F053C08091E800877F8093E80035
:101AF0008091E80080FFFCCFF60181853FC0809196
:101B00002D01813209F042C08091E800877F8093E7
:101B1000E80056DB90E080912F01811191E0F60101
:101B2000918734C080912D01813281F58091E80048
:101B3000877F8093E80044DB80912F0190913001F2
:101B4000807036E0969587953A95E1F7F60195878E
:101B500084871CC080912D01813AC1F48091E800F6
:101B6000877F8093E8008091E80080FFFCCFF6013A
:101B70008485958596958795969587958093F100B0
:101B80008091E8008E778093E8001ADB0FB6F89416
:101B90007EBE0FBE6DBE0F900F900F90CF91DF9164
:101BA0001F910F91FF90EF90DF90CF90BF90AF907B
:101BB0009F908F907F906F900895FB01DC0104C08F
:101BC0008D910190801921F441505040C8F7881B35
:101BD000990B0895FB01DC0102C001900D92415068
:101BE0005040D8F70895DC0101C06D93415050403A
:081BF000E0F70895F894FFCF1F
:101BF800008108000001110103000000000000003E
:00000001FF
